{
  "contractName": "PatientRecord",
  "abi": [
    {
      "constant": true,
      "inputs": [
        {
          "name": "",
          "type": "uint256"
        }
      ],
      "name": "recordsArr",
      "outputs": [
        {
          "name": "",
          "type": "uint256"
        }
      ],
      "payable": false,
      "stateMutability": "view",
      "type": "function"
    },
    {
      "constant": true,
      "inputs": [
        {
          "name": "",
          "type": "uint256"
        }
      ],
      "name": "_records",
      "outputs": [
        {
          "name": "pAddr",
          "type": "address"
        },
        {
          "name": "ID",
          "type": "uint256"
        },
        {
          "name": "testName",
          "type": "string"
        },
        {
          "name": "date",
          "type": "string"
        },
        {
          "name": "hospitalName",
          "type": "string"
        },
        {
          "name": "price",
          "type": "uint256"
        },
        {
          "name": "isValue",
          "type": "bool"
        },
        {
          "name": "signatureCount",
          "type": "uint256"
        }
      ],
      "payable": false,
      "stateMutability": "view",
      "type": "function"
    },
    {
      "inputs": [],
      "payable": false,
      "stateMutability": "nonpayable",
      "type": "constructor"
    },
    {
      "anonymous": false,
      "inputs": [
        {
          "indexed": false,
          "name": "ID",
          "type": "uint256"
        },
        {
          "indexed": false,
          "name": "testName",
          "type": "string"
        },
        {
          "indexed": false,
          "name": "date",
          "type": "string"
        },
        {
          "indexed": false,
          "name": "hospitalName",
          "type": "string"
        },
        {
          "indexed": false,
          "name": "price",
          "type": "uint256"
        }
      ],
      "name": "recordCreated",
      "type": "event"
    },
    {
      "anonymous": false,
      "inputs": [
        {
          "indexed": false,
          "name": "ID",
          "type": "uint256"
        },
        {
          "indexed": false,
          "name": "testName",
          "type": "string"
        },
        {
          "indexed": false,
          "name": "date",
          "type": "string"
        },
        {
          "indexed": false,
          "name": "hospitalName",
          "type": "string"
        },
        {
          "indexed": false,
          "name": "price",
          "type": "uint256"
        }
      ],
      "name": "recordSigned",
      "type": "event"
    },
    {
      "constant": false,
      "inputs": [
        {
          "name": "_ID",
          "type": "uint256"
        },
        {
          "name": "_tName",
          "type": "string"
        },
        {
          "name": "_date",
          "type": "string"
        },
        {
          "name": "hName",
          "type": "string"
        },
        {
          "name": "price",
          "type": "uint256"
        }
      ],
      "name": "newRecord",
      "outputs": [],
      "payable": false,
      "stateMutability": "nonpayable",
      "type": "function"
    },
    {
      "constant": false,
      "inputs": [
        {
          "name": "_ID",
          "type": "uint256"
        }
      ],
      "name": "signRecord",
      "outputs": [],
      "payable": false,
      "stateMutability": "nonpayable",
      "type": "function"
    }
  ],
  "bytecode": "0x608060405234801561001057600080fd5b50336000806101000a81548173ffffffffffffffffffffffffffffffffffffffff021916908373ffffffffffffffffffffffffffffffffffffffff16021790555073ebb11572d276cbba49c1c495d7518ff82d317282600160006101000a81548173ffffffffffffffffffffffffffffffffffffffff021916908373ffffffffffffffffffffffffffffffffffffffff160217905550610eb6806100b56000396000f3fe608060405234801561001057600080fd5b506004361061004c5760003560e01c806317aa7fcb14610051578063549b39fc1461024e578063a508d0ed14610290578063ee96b9eb146102be575b600080fd5b61024c600480360360a081101561006757600080fd5b81019080803590602001909291908035906020019064010000000081111561008e57600080fd5b8201836020820111156100a057600080fd5b803590602001918460018302840111640100000000831117156100c257600080fd5b91908080601f016020809104026020016040519081016040528093929190818152602001838380828437600081840152601f19601f8201169050808301925050505050505091929192908035906020019064010000000081111561012557600080fd5b82018360208201111561013757600080fd5b8035906020019184600183028401116401000000008311171561015957600080fd5b91908080601f016020809104026020016040519081016040528093929190818152602001838380828437600081840152601f19601f820116905080830192505050505050509192919290803590602001906401000000008111156101bc57600080fd5b8201836020820111156101ce57600080fd5b803590602001918460018302840111640100000000831117156101f057600080fd5b91908080601f016020809104026020016040519081016040528093929190818152602001838380828437600081840152601f19601f82011690508083019250505050505050919291929080359060200190929190505050610490565b005b61027a6004803603602081101561026457600080fd5b810190808035906020019092919050505061075a565b6040518082815260200191505060405180910390f35b6102bc600480360360208110156102a657600080fd5b810190808035906020019092919050505061077b565b005b6102ea600480360360208110156102d457600080fd5b8101908080359060200190929190505050610ba8565b604051808973ffffffffffffffffffffffffffffffffffffffff1673ffffffffffffffffffffffffffffffffffffffff1681526020018881526020018060200180602001806020018781526020018615151515815260200185815260200184810384528a818151815260200191508051906020019080838360005b83811015610380578082015181840152602081019050610365565b50505050905090810190601f1680156103ad5780820380516001836020036101000a031916815260200191505b50848103835289818151815260200191508051906020019080838360005b838110156103e65780820151818401526020810190506103cb565b50505050905090810190601f1680156104135780820380516001836020036101000a031916815260200191505b50848103825288818151815260200191508051906020019080838360005b8381101561044c578082015181840152602081019050610431565b50505050905090810190601f1680156104795780820380516001836020036101000a031916815260200191505b509b50505050505050505050505060405180910390f35b60006002600087815260200190815260200160002090506002600087815260200190815260200160002060060160009054906101000a900460ff16156104d557600080fd5b338160000160006101000a81548173ffffffffffffffffffffffffffffffffffffffff021916908373ffffffffffffffffffffffffffffffffffffffff16021790555085816001018190555084816002019080519060200190610539929190610de5565b5083816003019080519060200190610552929190610de5565b508281600401908051906020019061056b929190610de5565b5081816005018190555060018160060160006101000a81548160ff0219169083151502179055506000816007018190555060038690806001815401808255809150509060018203906000526020600020016000909192909190915055507fc20f59e9d68948c943c420ad03b09ad5b4b7feccfe038eb67e9845033df38e1081600101548686868660405180868152602001806020018060200180602001858152602001848103845288818151815260200191508051906020019080838360005b8381101561064657808201518184015260208101905061062b565b50505050905090810190601f1680156106735780820380516001836020036101000a031916815260200191505b50848103835287818151815260200191508051906020019080838360005b838110156106ac578082015181840152602081019050610691565b50505050905090810190601f1680156106d95780820380516001836020036101000a031916815260200191505b50848103825286818151815260200191508051906020019080838360005b838110156107125780820151818401526020810190506106f7565b50505050905090810190601f16801561073f5780820380516001836020036101000a031916815260200191505b509850505050505050505060405180910390a1505050505050565b6003818154811061076757fe5b906000526020600020016000915090505481565b6000809054906101000a900473ffffffffffffffffffffffffffffffffffffffff1673ffffffffffffffffffffffffffffffffffffffff163373ffffffffffffffffffffffffffffffffffffffff1614806108235750600160009054906101000a900473ffffffffffffffffffffffffffffffffffffffff1673ffffffffffffffffffffffffffffffffffffffff163373ffffffffffffffffffffffffffffffffffffffff16145b61082c57600080fd5b60006002600083815260200190815260200160002090508060000160009054906101000a900473ffffffffffffffffffffffffffffffffffffffff1673ffffffffffffffffffffffffffffffffffffffff16600073ffffffffffffffffffffffffffffffffffffffff1614156108a157600080fd5b8060000160009054906101000a900473ffffffffffffffffffffffffffffffffffffffff1673ffffffffffffffffffffffffffffffffffffffff163373ffffffffffffffffffffffffffffffffffffffff1614156108fe57600080fd5b60018160080160003373ffffffffffffffffffffffffffffffffffffffff1673ffffffffffffffffffffffffffffffffffffffff16815260200190815260200160002054141561094d57600080fd5b60018160080160003373ffffffffffffffffffffffffffffffffffffffff1673ffffffffffffffffffffffffffffffffffffffff168152602001908152602001600020819055508060070160008154809291906001019190505550600281600701541415610ba4577fc2f555c23b76b78740a06bbfda9d00e05b6234a7e1123d7408fe22f39eaeb81f8160010154826002018360030184600401856005015460405180868152602001806020018060200180602001858152602001848103845288818154600181600116156101000203166002900481526020019150805460018160011615610100020316600290048015610a895780601f10610a5e57610100808354040283529160200191610a89565b820191906000526020600020905b815481529060010190602001808311610a6c57829003601f168201915b5050848103835287818154600181600116156101000203166002900481526020019150805460018160011615610100020316600290048015610b0c5780601f10610ae157610100808354040283529160200191610b0c565b820191906000526020600020905b815481529060010190602001808311610aef57829003601f168201915b5050848103825286818154600181600116156101000203166002900481526020019150805460018160011615610100020316600290048015610b8f5780601f10610b6457610100808354040283529160200191610b8f565b820191906000526020600020905b815481529060010190602001808311610b7257829003601f168201915b50509850505050505050505060405180910390a15b5050565b60026020528060005260406000206000915090508060000160009054906101000a900473ffffffffffffffffffffffffffffffffffffffff1690806001015490806002018054600181600116156101000203166002900480601f016020809104026020016040519081016040528092919081815260200182805460018160011615610100020316600290048015610c805780601f10610c5557610100808354040283529160200191610c80565b820191906000526020600020905b815481529060010190602001808311610c6357829003601f168201915b505050505090806003018054600181600116156101000203166002900480601f016020809104026020016040519081016040528092919081815260200182805460018160011615610100020316600290048015610d1e5780601f10610cf357610100808354040283529160200191610d1e565b820191906000526020600020905b815481529060010190602001808311610d0157829003601f168201915b505050505090806004018054600181600116156101000203166002900480601f016020809104026020016040519081016040528092919081815260200182805460018160011615610100020316600290048015610dbc5780601f10610d9157610100808354040283529160200191610dbc565b820191906000526020600020905b815481529060010190602001808311610d9f57829003601f168201915b5050505050908060050154908060060160009054906101000a900460ff16908060070154905088565b828054600181600116156101000203166002900490600052602060002090601f016020900481019282601f10610e2657805160ff1916838001178555610e54565b82800160010185558215610e54579182015b82811115610e53578251825591602001919060010190610e38565b5b509050610e619190610e65565b5090565b610e8791905b80821115610e83576000816000905550600101610e6b565b5090565b9056fea165627a7a7230582098dd8e62eb30874bbdb6cbbd25ccf2ada9dd7b798460f0d9cd143d9b5df9d4cf0029",
  "source": "pragma solidity >=0.4.21 <0.6.0;\r\ncontract PatientRecord {\r\n      address private hospitalAdmin;\r\n    address private labAdmin;\r\n\r\n    struct Record {\r\n        address pAddr;\r\n        uint256 ID;\r\n        string testName;\r\n        string date;\r\n        string hospitalName;\r\n        uint256 price;\r\n        bool isValue;\r\n        uint256 signatureCount;\r\n        mapping (address => uint256) signatures;\r\n    }\r\n\r\n    modifier signOnly {\r\n        require (msg.sender == hospitalAdmin || msg.sender == labAdmin );\r\n        _;\r\n    }\r\n\r\n    constructor () public {\r\n         hospitalAdmin = msg.sender;\r\n        labAdmin = 0xebB11572D276CbBA49c1C495d7518Ff82D317282;   \r\n    }\r\n    \r\n    // Mapping to store records\r\n    mapping (uint256=> Record) public _records;\r\n    uint256[] public recordsArr;\r\n\r\n    event recordCreated(uint256 ID, string testName, string date, string hospitalName, uint256 price);\r\n    event recordSigned(uint256 ID, string testName, string date, string hospitalName, uint256 price);\r\n    \r\n    // Create new record\r\n    function newRecord (uint256 _ID, string memory _tName, string memory _date, string memory hName,\r\n     uint256 price) public{\r\n        Record storage _newrecord = _records[_ID];\r\n\r\n        // Only allows new records to be created\r\n        require(!_records[_ID].isValue);\r\n            _newrecord.pAddr = msg.sender;\r\n            _newrecord.ID = _ID;\r\n            _newrecord.testName = _tName;\r\n            _newrecord.date = _date;\r\n            _newrecord.hospitalName = hName;\r\n            _newrecord.price = price;\r\n            _newrecord.isValue = true;\r\n            _newrecord.signatureCount = 0;\r\n\r\n        recordsArr.push(_ID);\r\n        emit  recordCreated(_newrecord.ID, _tName, _date, hName, price);\r\n    }\r\n\r\n    // Function to sign a record \r\n    function signRecord(uint256 _ID) signOnly public {\r\n        Record storage records = _records[_ID];\r\n        \r\n        // Checks the aunthenticity of the address signing it\r\n        require(address(0) != records.pAddr);\r\n        require(msg.sender != records.pAddr);\r\n        \r\n        // Doesn't allow the same person to sign twice\r\n        require(records.signatures[msg.sender] != 1);\r\n\r\n        records.signatures[msg.sender] = 1;\r\n        records.signatureCount++;\r\n\r\n        // Checks if the record has been signed by both the authorities to process insurance claim\r\n        if(records.signatureCount == 2)\r\n            emit  recordSigned(records.ID, records.testName, records.date, records.hospitalName, records.price);\r\n\r\n    }\r\n}\r\n",
  "sourcePath": "E:/blockchain/health/contracts/PatientRecord.sol",
  "compiler": {
    "name": "solc",
    "version": "0.5.8+commit.23d335f2.Emscripten.clang"
  },
  "schemaVersion": "3.0.15",
  "updatedAt": "2019-09-26T12:51:49.408Z",
  "devdoc": {
    "methods": {}
  },
  "userdoc": {
    "methods": {}
  }
}